:04000000EEEF02F02D
:08000800046ED8CF05F0E0CF33
:1000100006F00001E9CF0CF0EACF07F0E1CF08F0DD
:10002000E2CF09F0D9CF0AF0DACF0BF0F3CF12F01C
:10003000F4CF13F0FACF14F0F5CF15F0F6CF16F099
:10004000F7CF17F0F8CF18F0FBCF19F000C00EF083
:1000500001C00FF002C010F003C011F09DA034EFFA
:1000600000F09EB0B8EF00F0A3AA3AEF00F0A4BAF7
:1000700065EF00F00EC000F00FC001F010C002F0FC
:1000800011C003F00CC0E9FF07C0EAFF078E08C0EB
:10009000E1FF09C0E2FF0AC0D9FF0BC0DAFF12C0BE
:1000A000F3FF13C0F4FF14C0FAFF15C0F5FF16C02C
:1000B000F6FF17C0F7FF18C0F8FF19C0FBFF045088
:1000C00006C0E0FF05C0D8FF1000036A2650270FC6
:1000D000E96E000E0320EA6EA4AAFED76ECFEFFFF2
:1000E0002650020841E2010E265C036A270FE96EE2
:1000F000000E0320EA6EEF3C30D0036A2650270F33
:10010000E96E000E0320EA6EEF3C27D0F16BF1514F
:10011000265C19E3036AF1518C0F016E000E032275
:1001200003C0FCF0036AF151270FE96E000E0320B3
:10013000EA6EEFCFFDF0FCC0EAFF01C0E9FFFDC0B1
:10014000EFFFF12BE4D79990907026C0F0F08B531D
:1001500001E1266A010E8B6F06D026505A0802E292
:10016000266A01D0262A01D0262AA49A3AEF00F066
:100170009E903AEF00F04F5645524C4F41440000DC
:10018000C150C00B0F09C16EC050C00BC06EC09EE5
:10019000C280B098C69A949A94889496010EC66EBE
:1001A000000EC76ED190800ED56EA50ECD6E000EDE
:1001B000CA6E000ECB6E766E000E776E9484BD6AAA
:1001C000796AB66A070EB46E9750976E080E006E85
:1001D000002EFED7B450A19CB56AA38A9D80C00EA4
:1001E000F21218EF03F0EA6AF70EE96EEF500EE034
:1001F000030E016E006A002EFED7012EFBD73C0EC7
:10020000006E002EFED700D0EF2EF2D7000C2C0E81
:10021000F66FF251F627F351F627F451F627F55110
:10022000F627F61FF3C0F7F0F86BF5C0F9F0FA6B9C
:10023000FF0EA4A8FED76D6EFF0EA4A8FED76D6EAC
:10024000040EA4A8FED76D6E070EA4A8FED76D6E8F
:10025000030EA4A8FED76D6E1E0EA4A8FED76D6E69
:10026000F251A4A8FED76D6EF751A4A8FED76D6E0B
:10027000F451A4A8FED76D6EF951A4A8FED76D6EF7
:10028000F651A4A8FED76D6E0D0EA4A8FED76D6E14
:100290000A0EA4A8FED76D6E140EF76FA4DF000C33
:1002A0002A0EF66FF251F627F351F627F451F6278E
:1002B000F551F627F61FF3C0F7F0F86BF5C0F9F02B
:1002C000FA6BFF0EA4A8FED76D6EFF0EA4A8FED792
:1002D0006D6E020EA4A8FED76D6E070EA4A8FED701
:1002E0006D6E030EA4A8FED76D6E1E0EA4A8FED7D9
:1002F0006D6EF251A4A8FED76D6EF751A4A8FED77B
:100300006D6EF451A4A8FED76D6EF951A4A8FED766
:100310006D6EF651A4A8FED76D6E0D0EA4A8FED783
:100320006D6E0A0EA4A8FED76D6E140EF76F5BDF1C
:10033000000C96908D9096928D92020EF36FF26B58
:10034000010EF56F2C0EF46F62DF640EF76F4BDF5A
:10035000020EF36FF26B010EF56F2C0EF46FA0DF3F
:1003600026EF03F096928D9296908D90020EF36F89
:10037000F26B010EF56F900EF46F49DF640EF76FAC
:1003800032DFF36BC80EF26F010EF56FF40EF46FEF
:1003900087DF040EF26FFA0EF76F25DFF22FFBD71F
:1003A00096928D82020EF36FBC0EF26F010EF56F06
:1003B000C20EF46F2CDF968884A8FDD796908D80AE
:1003C000C80EF76F10DF96928D92C80EF76F0BDF95
:1003D000010EF36F3B0EF26F020EF56FBC0EF46F61
:1003E00016DF640EF76FFFDE020EF36F580EF26F2A
:1003F000030EF56FE80EF46F53DF020EF26FFA0E84
:10040000F76FF1DEF22FFBD7030EF36F520EF26F90
:10041000020EF56FBC0EF46F43DF968484A4FDD703
:1004200096928D82C80EF76FDEDE96908D90C80E84
:10043000F76FD9DE010EF36F860EF26F020EF56FC5
:10044000BC0EF46F2DDFC80EF76FCDDE020EF36F1A
:10045000580EF26F030EF56FE80EF46FD8DE020E41
:10046000F26FFA0EF76FBFDEF22FFBD7030EF36FBA
:10047000520EF26F020EF56FBC0EF46FC8DE968A54
:1004800084AAFDD796908D80C80EF76FACDE969249
:100490008D92020EF26F960EF76FA5DEF22FFBD74C
:1004A000020EF36FF26BF56F580EF46FB0DE640E50
:1004B000F76F99DE020EF36FF26BF56F580EF46F63
:1004C000EFDE35EF03F096928D9296908D90020EAE
:1004D000F36FF26B010EF56F900EF46FE1DE640EB8
:1004E000F76F81DE030EF36F520EF26F020EF56F9F
:1004F000BC0EF46F8CDE040EF26FFA0EF76F73DE33
:10050000F22FFBD796908D80F36BC80EF26F010E21
:10051000F56F5E0EF46FC4DE968484A4FDD79692C8
:100520008D82C80EF76F5FDE96908D90C80EF76FC4
:100530005ADE020EF36FD50EF26F010EF56FF40E58
:10054000F46FAEDE640EF76F4EDEF36BF00EF26FFB
:10055000010EF56FF40EF46F5ADE968884A8FDD76D
:1005600096908D80C80EF76F3EDE96928D92C80EE3
:10057000F76F39DE020EF36F8A0EF26F010EF56F20
:10058000F40EF46F44DEC80EF76F2DDEF36B820EAF
:10059000F26F010EF56FF40EF46F82DE968684A67C
:1005A000FDD796928D82C80EF76F1DDE44EF03F0E3
:1005B000F36B450EF26F010EF56F2C0EF46F27DE14
:1005C000320EF76F10DE030EF36FCF0EF26F010ED7
:1005D000F56F2C0EF46F64DE53EF03F0F86AD09ED3
:1005E000078EEA6AE96A7E96400EAF6EA60EAC6E82
:1005F000900EAB6E7C862A0E6F6E000E7D6EA60E80
:100600006C6E900E6B6E1B6A1C6A1D6A1E6A1F6AF6
:10061000206A216A226A236A246A256A266A8B6B09
:10062000F16BC150C00B0F09C16E070EB46EA8D597
:10063000958083B005D01D5203E1010E1D6E07D0D9
:10064000958083A004D01D2C02D073D61D6A95829C
:1006500083B205D01E5203E1010E1E6E07D09582B3
:1006600083A204D01E2C02D07DD61E6A958483B44A
:1006700005D01F5203E1010E1F6E07D0958483A49D
:1006800004D01F2C02D01FD71F6A958683B605D0D1
:10069000205203E1010E206E07D0958683A604D078
:0C06A000202C02D085D7206AC3D70300AD
:020000040030CA
:0E00000000C2190EF387B100FFC0FFE0FF4001
:00000001FF
;PIC18F8722
;CRC=E3C8  CREATED="30-May-14 10:35"
